{
  "_format": "hh-sol-artifact-1",
  "contractName": "FNFTFactoryMyToken",
  "sourceName": "contracts/FNFTFactoryMyToken.sol",
  "abi": [
    {
      "anonymous": false,
      "inputs": [
        {
          "indexed": false,
          "internalType": "address",
          "name": "myTokenAddress",
          "type": "address"
        }
      ],
      "name": "MyTokenEvent",
      "type": "event"
    },
    {
      "inputs": [
        {
          "internalType": "string",
          "name": "name",
          "type": "string"
        },
        {
          "internalType": "string",
          "name": "symbol",
          "type": "string"
        }
      ],
      "name": "deploy",
      "outputs": [],
      "stateMutability": "nonpayable",
      "type": "function"
    }
  ],
  "bytecode": "0x608060405234801561001057600080fd5b50611745806100206000396000f3fe608060405234801561001057600080fd5b506004361061002b5760003560e01c8063b548848714610030575b600080fd5b61004361003e3660046101f2565b610045565b005b600060405161005390610142565b604051809103906000f08015801561006f573d6000803e3d6000fd5b506040805163266c45bb60e11b81526004810191909152600760448201526626bcaa37b5b2b760c91b60648201526080602482015260036084820152624d544b60e81b60a48201529091506001600160a01b03821690634cd88b769060c401600060405180830381600087803b1580156100e857600080fd5b505af11580156100fc573d6000803e3d6000fd5b50506040516001600160a01b03841681527fe2dd5d8663d82e5cdbc1577cbb295c9109d727273262a299bc4e949a062913649250602001905060405180910390a1505050565b6114b98061025783390190565b634e487b7160e01b600052604160045260246000fd5b600082601f83011261017657600080fd5b813567ffffffffffffffff808211156101915761019161014f565b604051601f8301601f19908116603f011681019082821181831017156101b9576101b961014f565b816040528381528660208588010111156101d257600080fd5b836020870160208301376000602085830101528094505050505092915050565b6000806040838503121561020557600080fd5b823567ffffffffffffffff8082111561021d57600080fd5b61022986838701610165565b9350602085013591508082111561023f57600080fd5b5061024c85828601610165565b915050925092905056fe608060405234801561001057600080fd5b50611499806100206000396000f3fe608060405234801561001057600080fd5b50600436106100ea5760003560e01c80636352211e1161008c578063a22cb46511610066578063a22cb465146101e1578063b88d4fde146101f4578063c87b56dd14610207578063e985e9c51461021a57600080fd5b80636352211e146101a557806370a08231146101b857806395d89b41146101d957600080fd5b8063095ea7b3116100c8578063095ea7b31461015757806323b872dd1461016c57806342842e0e1461017f5780634cd88b761461019257600080fd5b806301ffc9a7146100ef57806306fdde0314610117578063081812fc1461012c575b600080fd5b6101026100fd366004610e32565b610256565b60405190151581526020015b60405180910390f35b61011f6102a8565b60405161010e9190610e9f565b61013f61013a366004610eb2565b61033a565b6040516001600160a01b03909116815260200161010e565b61016a610165366004610ee7565b610361565b005b61016a61017a366004610f11565b61047b565b61016a61018d366004610f11565b6104ac565b61016a6101a0366004610ff9565b6104c7565b61013f6101b3366004610eb2565b6105db565b6101cb6101c636600461105d565b61063b565b60405190815260200161010e565b61011f6106c1565b61016a6101ef366004611078565b6106d0565b61016a6102023660046110b4565b6106df565b61011f610215366004610eb2565b610717565b610102610228366004611130565b6001600160a01b039182166000908152606a6020908152604080832093909416825291909152205460ff1690565b60006001600160e01b031982166380ac58cd60e01b148061028757506001600160e01b03198216635b5e139f60e01b145b806102a257506301ffc9a760e01b6001600160e01b03198316145b92915050565b6060606580546102b790611163565b80601f01602080910402602001604051908101604052809291908181526020018280546102e390611163565b80156103305780601f1061030557610100808354040283529160200191610330565b820191906000526020600020905b81548152906001019060200180831161031357829003601f168201915b5050505050905090565b60006103458261078b565b506000908152606960205260409020546001600160a01b031690565b600061036c826105db565b9050806001600160a01b0316836001600160a01b0316036103de5760405162461bcd60e51b815260206004820152602160248201527f4552433732313a20617070726f76616c20746f2063757272656e74206f776e656044820152603960f91b60648201526084015b60405180910390fd5b336001600160a01b03821614806103fa57506103fa8133610228565b61046c5760405162461bcd60e51b815260206004820152603d60248201527f4552433732313a20617070726f76652063616c6c6572206973206e6f7420746f60448201527f6b656e206f776e6572206f7220617070726f76656420666f7220616c6c00000060648201526084016103d5565b61047683836107ed565b505050565b610485338261085b565b6104a15760405162461bcd60e51b81526004016103d59061119d565b6104768383836108da565b610476838383604051806020016040528060008152506106df565b600054610100900460ff16158080156104e75750600054600160ff909116105b806105015750303b158015610501575060005460ff166001145b6105645760405162461bcd60e51b815260206004820152602e60248201527f496e697469616c697a61626c653a20636f6e747261637420697320616c72656160448201526d191e481a5b9a5d1a585b1a5e995960921b60648201526084016103d5565b6000805460ff191660011790558015610587576000805461ff0019166101001790555b6105918383610a3e565b8015610476576000805461ff0019169055604051600181527f7f26b83ff96e1f2b6a682f133852f6798a09c465da95921460cefb38474024989060200160405180910390a1505050565b6000818152606760205260408120546001600160a01b0316806102a25760405162461bcd60e51b8152602060048201526018602482015277115490cdcc8c4e881a5b9d985b1a59081d1bdad95b88125160421b60448201526064016103d5565b60006001600160a01b0382166106a55760405162461bcd60e51b815260206004820152602960248201527f4552433732313a2061646472657373207a65726f206973206e6f7420612076616044820152683634b21037bbb732b960b91b60648201526084016103d5565b506001600160a01b031660009081526068602052604090205490565b6060606680546102b790611163565b6106db338383610a6f565b5050565b6106e9338361085b565b6107055760405162461bcd60e51b81526004016103d59061119d565b61071184848484610b3d565b50505050565b60606107228261078b565b600061073960408051602081019091526000815290565b905060008151116107595760405180602001604052806000815250610784565b8061076384610b70565b6040516020016107749291906111ea565b6040516020818303038152906040525b9392505050565b6000818152606760205260409020546001600160a01b03166107ea5760405162461bcd60e51b8152602060048201526018602482015277115490cdcc8c4e881a5b9d985b1a59081d1bdad95b88125160421b60448201526064016103d5565b50565b600081815260696020526040902080546001600160a01b0319166001600160a01b0384169081179091558190610822826105db565b6001600160a01b03167f8c5be1e5ebec7d5bd14f71427d1e84f3dd0314c0f7b2291e5b200ac8c7c3b92560405160405180910390a45050565b600080610867836105db565b9050806001600160a01b0316846001600160a01b031614806108ae57506001600160a01b038082166000908152606a602090815260408083209388168352929052205460ff165b806108d25750836001600160a01b03166108c78461033a565b6001600160a01b0316145b949350505050565b826001600160a01b03166108ed826105db565b6001600160a01b0316146109135760405162461bcd60e51b81526004016103d590611219565b6001600160a01b0382166109755760405162461bcd60e51b8152602060048201526024808201527f4552433732313a207472616e7366657220746f20746865207a65726f206164646044820152637265737360e01b60648201526084016103d5565b826001600160a01b0316610988826105db565b6001600160a01b0316146109ae5760405162461bcd60e51b81526004016103d590611219565b600081815260696020908152604080832080546001600160a01b03199081169091556001600160a01b0387811680865260688552838620805460001901905590871680865283862080546001019055868652606790945282852080549092168417909155905184937fddf252ad1be2c89b69c2b068fc378daa952ba7f163c4a11628f55a4df523b3ef91a4505050565b600054610100900460ff16610a655760405162461bcd60e51b81526004016103d59061125e565b6106db8282610c03565b816001600160a01b0316836001600160a01b031603610ad05760405162461bcd60e51b815260206004820152601960248201527f4552433732313a20617070726f766520746f2063616c6c65720000000000000060448201526064016103d5565b6001600160a01b038381166000818152606a6020908152604080832094871680845294825291829020805460ff191686151590811790915591519182527f17307eab39ab6107e8899845ad3d59bd9653f200f220920489ca2b5937696c31910160405180910390a3505050565b610b488484846108da565b610b5484848484610c43565b6107115760405162461bcd60e51b81526004016103d5906112a9565b60606000610b7d83610d44565b600101905060008167ffffffffffffffff811115610b9d57610b9d610f4d565b6040519080825280601f01601f191660200182016040528015610bc7576020820181803683370190505b5090508181016020015b600019016f181899199a1a9b1b9c1cb0b131b232b360811b600a86061a8153600a8504945084610bd157509392505050565b600054610100900460ff16610c2a5760405162461bcd60e51b81526004016103d59061125e565b6065610c368382611349565b5060666104768282611349565b60006001600160a01b0384163b15610d3957604051630a85bd0160e11b81526001600160a01b0385169063150b7a0290610c87903390899088908890600401611409565b6020604051808303816000875af1925050508015610cc2575060408051601f3d908101601f19168201909252610cbf91810190611446565b60015b610d1f573d808015610cf0576040519150601f19603f3d011682016040523d82523d6000602084013e610cf5565b606091505b508051600003610d175760405162461bcd60e51b81526004016103d5906112a9565b805181602001fd5b6001600160e01b031916630a85bd0160e11b1490506108d2565b506001949350505050565b60008072184f03e93ff9f4daa797ed6e38ed64bf6a1f0160401b8310610d835772184f03e93ff9f4daa797ed6e38ed64bf6a1f0160401b830492506040015b6d04ee2d6d415b85acef81000000008310610daf576d04ee2d6d415b85acef8100000000830492506020015b662386f26fc100008310610dcd57662386f26fc10000830492506010015b6305f5e1008310610de5576305f5e100830492506008015b6127108310610df957612710830492506004015b60648310610e0b576064830492506002015b600a83106102a25760010192915050565b6001600160e01b0319811681146107ea57600080fd5b600060208284031215610e4457600080fd5b813561078481610e1c565b60005b83811015610e6a578181015183820152602001610e52565b50506000910152565b60008151808452610e8b816020860160208601610e4f565b601f01601f19169290920160200192915050565b6020815260006107846020830184610e73565b600060208284031215610ec457600080fd5b5035919050565b80356001600160a01b0381168114610ee257600080fd5b919050565b60008060408385031215610efa57600080fd5b610f0383610ecb565b946020939093013593505050565b600080600060608486031215610f2657600080fd5b610f2f84610ecb565b9250610f3d60208501610ecb565b9150604084013590509250925092565b634e487b7160e01b600052604160045260246000fd5b600067ffffffffffffffff80841115610f7e57610f7e610f4d565b604051601f8501601f19908116603f01168101908282118183101715610fa657610fa6610f4d565b81604052809350858152868686011115610fbf57600080fd5b858560208301376000602087830101525050509392505050565b600082601f830112610fea57600080fd5b61078483833560208501610f63565b6000806040838503121561100c57600080fd5b823567ffffffffffffffff8082111561102457600080fd5b61103086838701610fd9565b9350602085013591508082111561104657600080fd5b5061105385828601610fd9565b9150509250929050565b60006020828403121561106f57600080fd5b61078482610ecb565b6000806040838503121561108b57600080fd5b61109483610ecb565b9150602083013580151581146110a957600080fd5b809150509250929050565b600080600080608085870312156110ca57600080fd5b6110d385610ecb565b93506110e160208601610ecb565b925060408501359150606085013567ffffffffffffffff81111561110457600080fd5b8501601f8101871361111557600080fd5b61112487823560208401610f63565b91505092959194509250565b6000806040838503121561114357600080fd5b61114c83610ecb565b915061115a60208401610ecb565b90509250929050565b600181811c9082168061117757607f821691505b60208210810361119757634e487b7160e01b600052602260045260246000fd5b50919050565b6020808252602d908201527f4552433732313a2063616c6c6572206973206e6f7420746f6b656e206f776e6560408201526c1c881bdc88185c1c1c9bdd9959609a1b606082015260800190565b600083516111fc818460208801610e4f565b835190830190611210818360208801610e4f565b01949350505050565b60208082526025908201527f4552433732313a207472616e736665722066726f6d20696e636f72726563742060408201526437bbb732b960d91b606082015260800190565b6020808252602b908201527f496e697469616c697a61626c653a20636f6e7472616374206973206e6f74206960408201526a6e697469616c697a696e6760a81b606082015260800190565b60208082526032908201527f4552433732313a207472616e7366657220746f206e6f6e20455243373231526560408201527131b2b4bb32b91034b6b83632b6b2b73a32b960711b606082015260800190565b601f82111561047657600081815260208120601f850160051c810160208610156113225750805b601f850160051c820191505b818110156113415782815560010161132e565b505050505050565b815167ffffffffffffffff81111561136357611363610f4d565b611377816113718454611163565b846112fb565b602080601f8311600181146113ac57600084156113945750858301515b600019600386901b1c1916600185901b178555611341565b600085815260208120601f198616915b828110156113db578886015182559484019460019091019084016113bc565b50858210156113f95787850151600019600388901b60f8161c191681555b5050505050600190811b01905550565b6001600160a01b038581168252841660208201526040810183905260806060820181905260009061143c90830184610e73565b9695505050505050565b60006020828403121561145857600080fd5b815161078481610e1c56fea26469706673582212208e8991362464d31be9082e619dafc80345dec13a242c6b93092167d8585fb1d864736f6c63430008150033a2646970667358221220840cea365aef1ec9aee1cda4dd1aaac4482972fde9b2f1997e35475c7d0a6b0664736f6c63430008150033",
  "linkReferences": {},
  "deployedLinkReferences": {}
}